:020000040000FA
:10000000B0020010690100007101000073010000DE
:100010007501000077010000790100000000000078
:100020000000000000000000000000007B01000054
:100030007D010000000000007F0100008101000040
:1000400083010000CB0800005B0A0000E10900000A
:1000500083010000210E00008301000083010000E5
:100060008301000083010000830100008301000080
:100070008301000083010000830100008301000070
:10008000830100008301000043080000970800007E
:10009000B10800008301000083010000830100001B
:1000A0008301000083010000830100008301000040
:1000B0008301000083010000830100008301000030
:1000C00083010000830100008301000000F002F8BA
:1000D00000F03AF80AA090E8000C82448344AAF1A8
:1000E0000107DA4501D100F02FF8AFF2090EBAE8A6
:1000F0000F0013F0010F18BFFB1A43F0010318475C
:10010000E41D0000041E0000103A24BF78C878C126
:10011000FAD8520724BF30C830C144BF04680C600D
:10012000704700000023002400250026103A28BF55
:1001300078C1FBD8520728BF30C148BF0B60704759
:100140001FB51FBD10B510BD00F0A6F81146FFF792
:10015000F7FF00F083FC00F0C4F803B4FFF7F2FFF0
:1001600003BC00F097FF000009488047094800479A
:10017000FEE7FEE7FEE7FEE7FEE7FEE7FEE7FEE757
:10018000FEE7FEE704480549034A054B70470000B7
:10019000A9040000CD000000B0000010B002001063
:1001A000B000001053EA020C00F069802DE9F04B1A
:1001B0004FF00006002B1FBFB3FA83F503FA05F4D6
:1001C00024FA05F65E4012BF1643B2FA82F502FA2F
:1001D00005F4C5F120051EBF22FA05FC44EA0C0413
:1001E000203556EA044C4FEA144418BF641C4FF003
:1001F00000084FF00009904271EB030C39D300293D
:1002000019BFB1FA81F701FA07F6B0FA80F700FAE0
:1002100007F6C7F120071EBF20FA07FC46EA0C06C6
:100220002037B6FBF4FCA7EB0507103F07F01F0BC8
:10023000CBF120060CFA0BFB2CFA06F644BFB346B2
:100240000026202FA4BF5E464FF0000B5BEA060C91
:1002500008BF4FF0010B19EB0B09ABFB027C48EB1D
:100260000608C01B06FB02CC0BFB03CC71EB0C0198
:10027000C1E70B46024641464846BDE8F08B13B540
:100280004FF000004FF00001AFF30080BDE81C40CC
:100290007047704770477047754600F029F8AE46C2
:1002A00005006946534620F00700854618B020B582
:1002B000FFF768FFBDE820404FF000064FF0000751
:1002C0004FF000084FF0000B21F00701AC46ACE8FE
:1002D000C009ACE8C009ACE8C009ACE8C0098D466B
:1002E00070470446AFF300802046FFF736FF00005A
:1002F000004870474C00001070470000FFFFFFFFF0
:100300002DE9F04798480068C0F3016003287CD1CC
:100310009648006810F0030006D0012833D0022868
:100320005FD003282ED100E000BF8F480068C0F3E3
:10033000074000F101044FF002018D48D0F8880019
:10034000C0F30E0000F10100A1FB0001894B4FF04A
:10035000000CA0FB037901FB039100FB0C1122466A
:1003600063463846FFF71EFF054683480068C0B263
:1003700000F1010422464FF000032846FFF712FF68
:100380007E4908605DE078480068C0F3074000F1EE
:1003900001044FF002017648D0F88800C0F30E0047
:1003A00000F10100A1FB0010754A4FF0000CA1FB09
:1003B000027900FB029001FB0C012246634638469D
:1003C000FFF7F0FE05466C480068C0B200F101047A
:1003D00022464FF000032846FFF7E4FE6749086015
:1003E0002FE061480068C0F3074000F101044FF0BE
:1003F00002015F48D0F88800C0F30E0000F1010050
:10040000A1FB00124FF4004000E01BE04FF000039E
:10041000A1FB007902FB009001FB03012246384654
:10042000FFF7C0FE054654480068C0B200F1010461
:1004300022464FF000032846FFF7B4FE4F490860FC
:1004400000BF2FE04948006810F0030006D00128E3
:1004500010D0022819D0032823D100E000BF46485D
:100460000068C0B200F101004249B1FBF0F043491D
:10047000086016E040480068C0B200F10100404941
:10048000B1FBF0F03D4908600BE03B480068C0B2AA
:1004900000F101004FF40041B1FBF0F03749086072
:1004A00000BF00BFBDE8F087202036490860304813
:1004B000D0F8A00110F0200F05D000BF314800682F
:1004C00010F0400FFAD003202B4908604FF00000D5
:1004D0002749C1F8A8012C4908604FF001002349C1
:1004E00008602A482A4908604FF0AA002949086094
:1004F0004FF0550008604FF00100274908604FF0A9
:10050000AA00244908604FF055001949C1F88C0031
:1005100000BF1548006810F0806FFAD003201E4914
:1005200008604FF0AA001249C1F88C004FF0550046
:100530001849086000BF0C48006810F0407FFAD0EE
:1005400000201649086016480949C1F8C4004FF058
:100550000000C1F8C8010846006820F4704040F46B
:10056000804008607047000088C00F400CC10F40F9
:1005700000C00F4000093D0004C10F400000001002
:10058000001BB700A0C10F40ACC10F4063000500C5
:1005900084C00F408CC00F4080C00F4008C10F4086
:1005A000DE87280410B5002807DACA06140EF64ABA
:1005B00000F00F031B1FD45403E0CA06130EF34AC6
:1005C000135410BD10B5F248006940F0A870F0490E
:1005D000086103200246EC4B0C3B19684FF6FF0301
:1005E0001940EC4B0B4343EA0221E74B0C3B1960EB
:1005F00000BF1521FFF7D6FF14210220FFF7D2FF1D
:1006000013210120FFF7CEFF0F211220FFF7CAFFB1
:1006100010211320FFF7C6FF11211420FFF7C2FF9E
:10062000012000F0EEFA022000F0EBFA032000F0C7
:10063000E8FA122000F0E5FAD748007828B913202C
:1006400000F0DFFA142000F0DCFAD448006840F033
:100650000700D349C1F848010846D0F84C014FF0D3
:100660000000C1F84C010846D0F8400140F00700F6
:10067000C1F8400110BDC648C06840F40070C449CC
:10068000C860C848006840F04000C549C1F8C400CF
:10069000C548C64988610846C06C40F48060C8649B
:1006A0000846406940F0020048610846406840F052
:1006B000090048607047BB480068BD4940EA010036
:1006C000B749C1F8C4004FF018004FF04021C8608E
:1006D0000846406940F003004861B64800688861F8
:1006E0004FF00C00C8610846406840F002004860C6
:1006F000084640684FF0000048600846406840F0F7
:1007000001004860AC48406940F01800AA494861BF
:100710004FF49670C8610846406840F00200486097
:10072000084640684FF0000048600846406840F0C6
:1007300002004860084640684FF000004860944856
:10074000006840F44070924908600846406A40F0F2
:10075000807048629948806A40F007009749886233
:100760004FF0000048614FF4967088610846C06BF6
:1007700040F01100C8630846406840F0020048603D
:10078000084640684FF0000048604FF001004860A4
:1007900070472DE9F05F8246504601F0DBF8804655
:1007A0000022874B00F0EEFE06460022854B00F04B
:1007B00051FD044600F074FC8346584601F0CAF827
:1007C000064600227E4B00F09DFC044600F09AFE97
:1007D000764908620846006D40F005000865BDE8EE
:1007E000F09F70B5044678497848006801F060F9D8
:1007F0000AD2204601F048F90546744801682846A7
:1008000001F0D4F87149086070480068FFF7C1FF33
:1008100070BD70B5044600216C48006801F0C7F94E
:100820000AD2204601F030F905466848016828469A
:1008300001F0EEF96549086064480068FFF7A9FF18
:1008400070BD6348006840F001005549C1F840019F
:100850005148007810F0010F0BD14F48007810F08C
:10086000020F03D102204C49087002E000204A49DF
:1008700008704948007810F0010F0BD04648007806
:1008800010F0040F03D105204349087002E0012055
:1008900041490870704710B54D48006840F00200AB
:1008A0003F49C1F840014B480078FFF79AFF10BD5F
:1008B00010B54748006840F004003949C1F84001CC
:1008C00044480078FFF7A5FF10BD10B54FF0402059
:1008D000006840F001004FF0402108602E48007889
:1008E00010F0010F16D12C48007810F0020F11D132
:1008F0003248406840F0020030494860084640688D
:10090000002048600846C06B40F00100C863012029
:10091000314908702048007810F0010F27D01E4898
:10092000007810F0040F22D12448406840F0020003
:100930002249486008464068002048600846C06B6D
:1009400040F00100C8630120234908701E491F4878
:10095000006801F0ADF804D21E480078FFF741FFAF
:1009600005E0B420FFF755FF0020184908601B4838
:10097000C06940F001001949C8610548006840F4A9
:1009800040700349086010BD18ED00E000E400E08D
:1009900000C002400000FA050400001048C10F40EA
:1009A00000C00F40C4C00F401FA1070000800140DD
:1009B00006004000180000100080004000000940C0
:1009C000006AD840008066400000344308000010F0
:1009D00040C10F40050000100C00001000C00920AD
:1009E0002DE9FC5F8D48006840F010008B490860DD
:1009F0008B48007801280BD10846406840F002007F
:100A0000486008464068002048608549087022E038
:100A10008248C06A834908600846006800F09FFD6C
:100A20008046814A814B00F0ADFD06460022804B96
:100A300000F0A8FD044600227E4B00F0A3FD824694
:100A400000224FF0804300F005FCCDE9000100F0EA
:100A500059FD74490860BDE8FC9F704776487749A6
:100A600008604FF4165000F09FFA754800F00FFA36
:100A700000BF74480078002823D000207149087016
:100A800071A16D4800F0C6FA48B900206F4908709E
:100A90006FA000F0FCF901207749087011E077A100
:100AA000654800F0B7FA48B901206849087074A099
:100AB00000F0EDF901207049087002E07BA000F021
:100AC000E6F96D4800780028D3D000206A49087004
:100AD0005B487C3000F0DBF900BF5A480078002802
:100AE00041D000205749087057A1534800F092FAAE
:100AF00048B905207149087071A000F0C8F90120BB
:100B00005D4908702FE05DA14B4800F083FA48B9B9
:100B10000A206A49087075A000F0B9F90120564909
:100B2000087020E07CA1444800F074FA48B90F2016
:100B30006249087079A000F0AAF901204E490870B6
:100B400011E081A13C4800F065FA48B914205B49E6
:100B500008707EA000F09BF901204749087002E070
:100B600052A000F094F9444800780028B5D0002045
:100B700041490870804800F08AF900BF3148007888
:100B8000002832D000202F4908702FA12A4800F0F9
:100B900041FA48B979487A4908607AA000F077F9B3
:100BA00001203549087020E034A1234800F032FAD2
:100BB00048B981487249086080A000F068F90120B6
:100BC0002D49087011E054A11B4800F023FA48B9E0
:100BD00086486B49086086A000F059F90120264933
:100BE000087002E031A000F052F923480078002894
:100BF000C4D0FFF7E7FCFFF75EFDFFF73CFD00BF49
:100C0000FEE700F01F020121914042094FF0E0236E
:100C100003EB8202C2F80011704700000000094097
:100C20000C000010100000103A8C30E28E79653E06
:100C300000407540000059402C0000101C000010BE
:100C4000101D000020000010300D000004000010F6
:100C5000302D596F7520686176652073656C65630A
:100C600074656420746865206D616E75616C206DBB
:100C70006F64650A0D00000014000010310D0000C3
:100C8000312D596F7520686176652073656C6563D9
:100C900074656420746865206175746F6D61746932
:100CA00063206D6F64650A0D0000000057726F6E5F
:100CB0006720636F6D6D616E640A0D0005000010A2
:100CC000302D596F7520686176652073656C65639A
:100CD000746564203520646567726565207265738C
:100CE0006F6C7574696F6E0A0D000000312D596FBD
:100CF0007520686176652073656C65637465642032
:100D0000313020646567726565207265736F6C753C
:100D100074696F6E0A0D0000320D0000322D596F9C
:100D20007520686176652073656C65637465642001
:100D3000313520646567726565207265736F6C7507
:100D400074696F6E0A0D0000330D0000332D596F6A
:100D50007520686176652073656C656374656420D1
:100D6000323020646567726565207265736F6C75DB
:100D700074696F6E0A0D0000581E0000404B4C0055
:100D800018000010302D596F75206861766520734A
:100D9000656C656374656420302C35207365636F02
:100DA0006E6473206F662072656672657368207466
:100DB000696D650A0D00000040420F00312D596F2A
:100DC0007520686176652073656C65637465642061
:100DD00031207365636F6E6473206F662072656681
:100DE000726573682074696D650A0D0080841E0049
:100DF000322D596F7520686176652073656C656367
:100E00007465642032207365636F6E6473206F664F
:100E100020726566726573682074696D650A0D00DD
:100E20007348806800F00E0002281BD004282CD1E3
:100E30006F4800786F49096808706E48006801784B
:100E40006C480068401C6B4A10600D2909D10020D5
:100E50001146096808700120674908706748114603
:100E6000086012E066480068007850B16448006885
:100E700000785F49087062480068401C604908605B
:100E800002E001205F49087000BF00BF70475C4965
:100E9000086000215B4A1170594909680978544A71
:100EA000117057490968491C554A116070472DE96E
:100EB000F84F01464FF0FF30DFF84CB1DBF800B0DF
:100EC0004FEA9B080026002700234FF0010A4FF04D
:100ED000000BCDF800B04FF000090025DFF82CC161
:100EE0004FEA181801222CE0002424E002FB08FB42
:100EF00002EB040EBBFBFEF7B7FBF1F3B7FBF1FB14
:100F000001FB1B7BBBEB510F00D95B1C022B11D9E2
:100F1000B3F5803F0ED2B7FBF3F68E4201D88D1B9E
:100F200000E0751A654505D2924600949946AC4694
:100F300005B902E0641C0F2CD8D900BF05B902E046
:100F4000521C0F2AD0D900BF01EB410B4FF0640EA9
:100F5000BBFBFEFBE34525D9DFF894B09BF80CB052
:100F60004BF0800BDFF888E08EF80CB04FEA192BBD
:100F70008EF804B08EF80090F3469BF80CB02BF07E
:100F8000800B8EF80CB04FF0F00B0BEA0A1BDDF86B
:100F900000E00EF00F0E4BEA0E0BDFF854E08EF877
:100FA00028B00020BDE8F88F10B504461848006846
:100FB00040F05000164908600D48007B0C4908734A
:100FC0000846007B40F0030008732046FFF76FFFE0
:100FD00003200749486005200121814042094FF064
:100FE000E02303EB8202C2F8001100BF10BD000035
:100FF00000C000401C000010200000102C00001059
:10100000240000102800001000000010A08601003D
:1010100000C002404FF0013C50F8042B51F8043B53
:101020009A4221D1A2EB0C03934313EACC1317D1BC
:1010300050F8042B51F8043B9A4215D1A2EB0C0353
:10104000934313EACC130BD150F8042B51F8043B13
:101050009A4209D1A2EB0C03934313EACC13DBD0E1
:101060004FF00000704700BFD01A01BAB1FA81F109
:1010700001F0180122FA01F0CB40C1F12001DBB2EE
:10108000C0B2C01A2CFA01F3D11A914311EAC3116C
:10109000E6D1704701491820ABBEFEE726000200EA
:1010A00021F00042A2F16052B2F5801F01F000432E
:1010B00028BFD2F17F6C0BD95FEA001C43EAC20261
:1010C00042EB507018BF704728BF20F001007047F6
:1010D000B2F5801FBCBF184670474FEA410C1CF5A3
:1010E000001F02D2084600F05DBD70B500F0F4FAB2
:1010F00000000089FFF7F6BF4FF00040A0F5800028
:101100007047000010B591EA030F48BF83F0004319
:1011100000F13E83841A71EB030C05D2121943EBE4
:101120000C03001B61EB0C01DFF824E14FEA1154C2
:10113000A4EB135C1EEA430F18BF9EEA445F73D012
:1011400023EA0E03DCF1200E21EA045143F480135C
:1011500032D322FA0CFE10EB0E0023FA0CFE41EB08
:101160000E01CCF1200E03FA0EFE10EB0E0051F131
:101170000001B1F5801FCCF1200E32D201EB0451F9
:1011800012FA0EF2BDE8104058BF7047401C38BF3D
:101190005FEA420218BF7047002814BF20F0010028
:1011A00041F100014FEA410313F5001F38BF7047BA
:1011B000A1F1C04100F0DEBA012A43EB0302ACF119
:1011C000200CDCF11F0E32BF4FF0000E23FA0CF39F
:1011D00010EB030041EB0451B4EB115FD0D0A1EB55
:1011E000045101F5801149085FEA300001EB045118
:1011F0000ED350F1000038BF12FA0EFE08D1BDE840
:101200001040C9E7401C38BF5FEA4202CAD1C3E7B9
:10121000BDE810404FEA410313F5001F38BF704787
:10122000A1F1C04100F0A6BA9EEA445F08D011EADD
:101230005E0FBDE8104004BF01F000410020704780
:10124000BDE8104070B500F047FA00BF64FBBE3E39
:101250000000E0FF2DE9C04130B4DFF8A0C23CEA55
:10126000111418BF3CEA131400F0EC8081EA030566
:101270001CEA111444EAD57418BF1CEA131500F0D7
:10128000C780A4EB05044FF0004545EAC12145EABB
:10129000C32341EA505143EA525304F17F74994207
:1012A00004F500344FEAC0204FEAC22208BF904242
:1012B00000F09C804FEA13650FF24016765D4FEA0E
:1012C000134506FB05F7C7F1807706FB07F74FEAE2
:1012D000D737A7FB03687642C8F58038A7FB06CE50
:1012E00038BFA8F1010807FB08E64FF0000EA6FB87
:1012F000028CE6FB03CEDCF1000CCEF1004E38BFD1
:10130000AEF1010EA6FB0C584FF000074FF00005A0
:10131000E6FB0E87A1FB08C6A0FB07CE16EB0E0668
:1013200045F10005E1FB076515F1E04E7EBFA4F530
:1013300080345FEA46066D4116F1800745F10005ED
:101340004FEA17274FEA066647EA0567A6F1DE4629
:10135000B6F1805F4FEA15251FD9384624F0010CFD
:1013600005EBC471BCF1FE6F01EB0C1102D8F0BCAF
:10137000BDE8008124425CBF01F5801E9EEAC47F67
:1013800002D4F0BCBDE80081244238D4F0BCA1F105
:10139000C041BDE8004100F0EDB94FEAD22242EA77
:1013A00043524FEAD323A7FB02864FEAD02040EAFC
:1013B000415007FB03661EEA0E0F4FEAD12105FBE1
:1013C000026658BFA6EB0056B6EB00564FEA520E27
:1013D0004EEAC37E18EB0E0E56EB530EBDD518EB3E
:1013E00002085E417F1C55F10005B6E74FF48015F9
:1013F0004FF000074FF000064FF00008ADE7F0BCDB
:101400004FF0000001F1C04101F00041BDE8008152
:1014100011EA0C1F0CEA131500D00CE013EA0C1FA4
:1014200000F025804FF00000F0BC81EA030101F0DC
:101430000041BDE80081F0BCBDE8004181EA030144
:1014400000F098B9F0BCBDE8004170B500F044F977
:10145000097EFC3E00F007B881EA03014FF000006E
:1014600001F00041704781EA030100F083B9F0BC4C
:10147000BDE800414FF0000021497047FFFDFBF936
:10148000F7F5F4F2F0EEEDEBE9E8E6E4E3E1E0DEB7
:10149000DDDBDAD8D7D5D4D3D1D0CFCDCCCBCAC829
:1014A000C7C6C5C4C2C1C0BFBEBDBCBBBAB9B8B750
:1014B000B6B5B4B3B2B1B0AFAEADACABAAA9A8A843
:1014C000A7A6A5A4A3A3A2A1A09F9F9E9D9C9C9B11
:1014D0009A999998979796959594939392919190BC
:1014E0008F8F8E8E8D8C8C8B8B8A8989888887874D
:1014F0008685858484838382828181800000FF07C2
:101500000000F87F4FEA1153A3F58063D3F11E0367
:10151000A8BFD3F1200C08DB4FF0004242EAC12201
:1015200052EA505232FA03F0704709420BD4102BA2
:10153000C4BF0020704703F5787CBCF1FF3F05D0A5
:101540004FF0FF3070474FF00000704770B500F06B
:10155000C3F800BF4992248000207047F0E7B0FA3A
:1015600080F310FA03F10AD0C3F11D0303F5806381
:101570004FEA41504FEA035202EBD12170474FF03E
:1015800000007047DFF848C170B51CEA111E1EBF8D
:101590001CEA13159EEA0C0F95EA0C0F00F06F8001
:1015A00081EA030423EA4C134EEAD47E21EA4C116B
:1015B00041F4801143F48013AE44A1FB024CA0FB24
:1015C0000365AEF17F7E361955EB0C05A1FB034C8C
:1015D0004CF10003A0FB021C16EB0C06654153F115
:1015E0000003094218BF46F0010613F4007F0BD137
:1015F0004FEA03314FEA0530340341EA155140EA1E
:1016000016506FF003020AE04FEAC3214FEAC520EB
:10161000F40241EA555140EA56506FF0020202EBE3
:101620002E4201EB025585EACE710AD05FEA440CE6
:1016300018BF24F0004450F1000041F1000120EAFD
:10164000D47040F2FE7C624500D270BDA84214BF47
:101650004FF080444FF04044002E08BF0024BEF1FC
:10166000806FA8BFA1F1C041BDE8704080F28280C8
:101670004FF0000001F1C04101F0004170479EEAC7
:101680000C0F0CEA131518BF95EA0C0F06D04FF09B
:10169000000081EA030E0EF0004170BD00F01CF85E
:1016A0008900013E00F007B800F009B84FEA430C8A
:1016B0005FEA5C5C08D081EA030100F05BB84FEAA6
:1016C000410C5FEA5C5CF6D14FF0000001497047C5
:1016D0000000FF070000F87F0EF1020E2EF0030E4F
:1016E0005EF8046B364205D4012A43EB030515F579
:1016F000001F12D8012841EB010C1CF5001F0CD86B
:101700000ED14FEAD17C15F5001F0CEB4C0C0CF1FF
:10171000020C08BF4CEBD37C04E04FF0080C01E056
:101720004FEAD37C0CEB4C0526FA05F606F00706CB
:10173000B6F1040C06D20EEB860CBDE870404CF0FE
:10174000010C6047DFE80CF0090B02024FF000418A
:101750004FF00000A1F5002170BD19461046012888
:1017600051EB010418BFD4F5001484BF002001F030
:10177000004170BD0808A0F500114FEA3101704723
:1017800010B591EA030F48BF83F000433FF5C2ACA8
:10179000841A71EB030C07D212198CF0004C43EB46
:1017A0000C03001B61EB0C01DFF8A4E14FEA1154BC
:1017B000A4EB135C1EEA430F18BF9EEA445F00F0DF
:1017C000B08023EA6E03524221EA0451C3EB6E0358
:1017D00038BF5B1EDCF1200E25D322FA0CFE10EB85
:1017E0000E0043FA0CFE41EB0E01CCF1200E03FA81
:1017F0000EFE10EB0E0051F10001CCF1200E29D4A9
:1018000012FA0EF201EB0451BDE8104058BF7047C8
:10181000401C1CBFB2F1004F704700280CBF491C90
:1018200020F00100704712EB020E43EB030218BFD9
:101830004FF0010E4EEA4202ACF1200CDCF11E0E1C
:1018400054D943FA0CFE10EB0E0051F1FF31CCF1EC
:101850001E0ED5D50EF1010E12FA0EFE404141EBDF
:10186000010101EB445C5FEA5C5C10D910EBDE70B7
:1018700001EB045138BFBEF1004FBDE8104018BF66
:10188000704700280CBF491C20F00100704730D27F
:101890004FEAD42C11F5001124F400641BD0B1FAE6
:1018A00081F20B3AA41AA41ED2F12003914030FA1F
:1018B00003F31943904001EBCC71002C01EB045170
:1018C000BDE81040A8BF704701F1C0414FF00000D3
:1018D00001F000417047B0FA80F310FA03F100D133
:1018E00010BDE41A173C4805C90AE4E701EB0451AE
:1018F00010BD491001EB0451BDE810404FEA300023
:1019000002E04FF0000170474A0008BF0042F8D0E3
:10191000B2F5001F28BF704701F000414FF00000F2
:1019200070479EEA445F07D011EA5E0FBDE81040A1
:1019300004BF002100207047BDE8104070B5FFF7DC
:10194000CBFE00BF40DFF63E83F0004110467047FB
:101950000000E0FF43004FEAD30C4FEA3C0C434049
:101960001FBF40070CF1605113F0FE4F70471CF091
:10197000006F03D100200CF0004170470CF00043D1
:1019800043EA507010B540EACC0000F0C5F800BF43
:10199000000000924FEA0001FFF7ECBE4FF000415B
:1019A0004FF00000A1F500217047000090EA010F00
:1019B00048BF81F0004100F13C81421A3CBF801ACF
:1019C00089184FEAD0524FF07F4C1CEA410FA2EB2E
:1019D000D15318BF9CEA026F00F03B804FF0004CDF
:1019E0004CEA00204CEA012121FA03FC10EB0C0C1C
:1019F0001ED202F1FF325FEA1C2040EBC25038BF1A
:101A000070471CF07F0F4FEA400C18BFBCF17F4FAE
:101A100038BF7047C3F12003994008BF20F0010090
:101A2000BCF17F4F38BF7047A0F1C04000F0BAB89A
:101A30004FEA3C00000A40EBC25028BF1CF0FF0FE9
:101A40004FEA400CE6D018BFBCF17F4F38BF70475B
:101A5000EAE79CEA026F05D010EA5C0F08BF00F0CD
:101A60000040704710B500F057F800BF64FBBE3E61
:101A7000401058BFC0F14040491058BFC1F140412B
:101A80008142EFF300807047B0FA80F310FA03F25E
:101A9000C3F19D030AD0D90501EB1220530638BFCC
:101AA000704700F1010008BF20F0010070470000FE
:101AB00050EA010C00F113801CF5000F58BFBCF573
:101AC000000F01D48842704707D710F5000F58BFA8
:101AD00011F5000F15D488427047894270471CF5F4
:101AE000000F04D5BCF5000FF7D5814270474FF0C9
:101AF000807C1CEB400F38BF1CEB410F01D28142B0
:101B0000704710B500F008F8922449004FF00050DB
:101B10004FF08051FFF7ACBF0EF1020E2EF0030E16
:101B20005EF8044B244204D44FEA4102B2F17F4FE5
:101B300011D84FEA4003B3F17F4F0CD80ED14FEAD2
:101B4000D07CB2F17F4F0CEB4C0C0CF1020C08BFB7
:101B50004CEBD17C04E04FF0080C01E04FEAD17C63
:101B60000CEB4C0324FA03F404F00704B4F1040C66
:101B700006D20EEB840CBDE810404CF0010C60471F
:101B8000DFE80CF0070802024FF00040A0F58000EB
:101B900010BD0846420018BFD2F1807288BF00F025
:101BA000004010BDFF2141EAD050C005704751EA06
:101BB000000C00F113801CF5000F58BFBCF5000F9E
:101BC00001D48142704707D711F5000F58BF10F5B7
:101BD000000F15D481427047894270471CF5000FF1
:101BE00004D5BCF5000FF7D5884270474FF0807CD4
:101BF0001CEB410F38BF1CEB400F01D288427047ED
:101C000080EA010081EA000180EA0100FFF779BF64
:101C100080F0004090EA010F7FF5CFAE81F00041E7
:101C200000F007B890EA010F48BF81F000413FF58E
:101C3000C4AE421A04D882F00042A0EB0200114464
:101C40004FEAD0524FF07F4C1CEA410FA2EBD15328
:101C500018BF9CEA026F4AD04FF0004C4CEA0020BB
:101C60004CEA012121FA03FCB0EB0C0C0FD412F06A
:101C7000FE0F36D05FEA4C001DD5001240EBC2507B
:101C800038BF70471CF03F0F18BF70470BE0A2F140
:101C900001025FEA1C2040EBC25038BF70471CF0C5
:101CA0007F0F18BF7047C3F12003994014BF401E37
:101CB00020F00100704780084FEA122308BF7047E8
:101CC000B0FA80FCA2EB0C02CCF1280C60FA0CF00C
:101CD00093EA122F04BF00EBC25070474FEAC37063
:101CE0007047130A5FEADC1008BF7047F6E79CEA0A
:101CF000026F04D010EA5C0F08BF0020704710B5D7
:101D0000FFF70AFF40DFF63E81F000407047000019
:101D100053656C65637420746865206F70657261CB
:101D200074696F6E616C206D6F6465206F662074DE
:101D300068652072616461723A0A0D546F207365A0
:101D40007420746865206D616E75616C206D6F64C0
:101D50006520696E74726F64756365203020616EF2
:101D60006420696E74726F64756365206120312030
:101D7000746F2073657420746865206175746F6D6D
:101D800061746963206D6F64650A0D0053656C654D
:101D9000637420746865207265736F6C7574696F05
:101DA0006E206F6620746865207377656570206D9E
:101DB0006F76656D656E743A0A0D546F20736574A5
:101DC000207265736F6C7574696F6E20696E206424
:101DD00065677265657320656E7465722078287713
:101DE0006865726520782061726520706F73736911
:101DF000626C65207265736F6C7574696F6E7320A9
:101E0000696E20646567726565733A0A0D302066F5
:101E10006F72203520646567726565732C312066AA
:101E20006F7220313020646567726565732C3220D3
:101E3000666F722031352064656772656573206155
:101E40006E64203320666F722032302064656772C2
:101E5000656573292E0A0D00546F20736574207414
:101E6000686520706572696F64206F6620656163C4
:101E70006820736572766F6D6F746F72206D6F7608
:101E8000656D656E7420656E7465722078732028A8
:101E9000776865726520782061726520706F737352
:101EA00069626C6520706572696F647320696E2069
:101EB0007365636F6E64733A20302028666F7220FA
:101EC000302E3573292C20312028666F7220317313
:101ED000292C20322028666F72203273292E0A0D99
:101EE00000000000041F0000000000102C00000093
:101EF00008010000301F00002C00001084020000C8
:101F00002401000000E1F505000A000000000000C7
:101F100001000000000000000000000020A10700F8
:101F200000000000000000000000000000000000B1
:04000005000000CD2A
:00000001FF
